:100000000C947F000C94A7000C94A7000C94A700FC
:100010000C94A7000C94A7000C94A7000C94A700C4
:100020000C94A7000C94A7000C94A7000C94A700B4
:100030000C94A7000C94A7000C94A7000C94A700A4
:100040000C94A7000C94A7000C9484060C94A700B1
:100050000C94BA080C9444090C94A7000C94A700C3
:100060000C94A7000C94A7000C94D5040C94A70042
:100070000C94A7000C94A7000C94A700000021008A
:10008000240027002A0000002200250028002B0061
:1000900000002000230026002900040404040202BA
:1000A0000202040402020202030303030303030324
:1000B000040401010101010101010102040801021E
:1000C00004084020102040808040201008040201D5
:1000D0001080804020100804020100000000000091
:1000E000000108030200090A0000000000000000EF
:1000F000040700000000000000007103FD08112447
:100100001FBECFEFD0E1DEBFCDBF11E0A0E0B1E078
:10011000E6E2F5E102C005900D92AC3EB107D9F7D9
:1001200015E0ACEEB1E001C01D92A431B107E1F7DA
:1001300010E0CEEFD0E004C02297FE010E948D0AAD
:10014000CA3FD107C9F70E9404020C94910A0C948B
:100150000000EF92FF920F931F938C017B0182E3CB
:1001600092E06CE270E00E94370382E392E0612F3C
:100170000E94B903107082E392E0602F0E94B903DD
:1001800082E392E06F2D0E94B9038FEFE822FF24F3
:1001900082E392E06E2D0E94B90382E392E00E9416
:1001A000FC03E0EDF7E03197F1F790E0882309F4E4
:1001B00091E0892F1F910F91FF90EF90089587E0B4
:1001C00090E064E070E00E94A900089586E090E06D
:1001D00060E070E00E94A900089585E090E060E092
:1001E00070E00E94A900089581E090E067E070E06F
:1001F0000E94A900089580E090E060E27AE00E9409
:10020000A900089582E990E064E973E80E94A900DA
:1002100008958AE890E061E972E80E94A9000895D3
:1002200082E890E067E974E80E94A900089589EDEA
:1002300090E06FEF77ED0E94A900089588ED90E0BF
:100240006FEF7FE30E94A900089581ED90E06FEFCA
:100250007FEC0E94A900089580ED90E06FEF7FE3AE
:100260000E94A900089589EC90E06FEF7FEC0E9456
:10027000A900089588EC90E06FEF7FE30E94A90049
:10028000089581EC90E06FEF7FEC0E94A900089543
:1002900080EC90E06FEF7FE30E94A900089589EB66
:1002A00090E06FEF7FEC0E94A900089588EB90E04A
:1002B0006FEF7FE30E94A900089581EB90E06FEF5C
:1002C0007FEC0E94A900089580EB90E06FEF7FE340
:1002D0000E94A900089589EA90E06FEF7FEC0E94E8
:1002E000A900089588EA90E06FEF7FE30E94A900DB
:1002F000089581EA90E06FEF7FEC0E94A9000895D5
:1003000080EA90E06FEF7FE30E94A900089589E9F9
:1003100090E06FEF7FEC0E94A900089588E990E0DB
:100320006FEF7FE30E94A900089581E990E06FEFED
:100330007FE10E94A900089580E990E06FEE7FE3DD
:100340000E94A900089589E890E06FEF7FE10E9484
:10035000A900089588E890E06BEF7FE30E94A90070
:10036000089581E890E06FEF7FE10E94A900089571
:1003700080E890E06EEF7FE30E94A90008950F935C
:100380001F938C0182E392E06CE270E00E943703DD
:1003900082E392E0612F0E94B903107082E392E041
:1003A000602F0E94B90382E392E060E00E94E903BB
:1003B00080ED97E00197F1F782E392E06CE270E064
:1003C00042E050E00E940D0482E392E00E9441036B
:1003D000181619061CF02FEF3FEF0DC082E392E0D4
:1003E0000E944A03182F82E392E00E944A03312FB1
:1003F00020E0282B392BC9011F910F9108958AE025
:1004000090E00E94BF0108950E94D80685EB92E01B
:1004100040E855E260E070E026E00E94A30782E336
:1004200092E00E9411040E94B8010E94B1010E9452
:1004300010010E94AA010E94A3010E9409010E94CA
:100440009C010E9495010E9402010E948E010E945F
:1004500087010E9480010E9479010E9472010E941E
:100460006B010E9464010E945D010E9456010E947E
:100470004F010E9448010E9441010E943A010E94DE
:1004800033010E942C010E9425010E941E010E943E
:1004900017010E94FB000E94FF010E94ED000E94D4
:1004A000E6000E94DF000E94F4000E94FF0185EB3D
:1004B00092E060E071E00E94660A80E090E00E94B5
:1004C000BF01BC0185EB92E04AE050E00E94490A7E
:1004D00085EB92E06DE071E00E94660A81E090E0B9
:1004E0000E94BF01BC0185EB92E04AE050E00E940F
:1004F000490A85EB92E06CE171E00E94660A80E8AF
:1005000090E00E94BF01BC0185EB92E04AE050E020
:100510000E94490A85EB92E065E371E00E94660A59
:1005200081E890E00E94BF01BC0185EB92E04AE0C7
:1005300050E00E94490A85EB92E06FE471E00E946E
:10054000660A88E890E00E94BF01BC0185EB92E05A
:100550004AE050E00E94490A85EB92E068E671E0CB
:100560000E94660A89E890E00E94BF01BC0185EB09
:1005700092E04AE050E00E94490A85EB92E062E88E
:1005800071E00E94660A80E990E00E94BF01BC0110
:1005900085EB92E04AE050E00E94490A85EB92E048
:1005A0006BE971E00E94660A81E990E00E94BF0158
:1005B000BC0185EB92E04AE050E00E94490A82E8E3
:1005C00090E00E94BF01BC0185EB92E04AE050E060
:1005D0000E94490A8AE890E00E94BF01BC0185EBB5
:1005E00092E04AE050E00E94490A82E990E00E94CD
:1005F000BF01BC0185EB92E04AE050E00E94490A4D
:100600008BE090E00E94BF01BC0185EB92E04AE0E4
:1006100050E00E94330A85EB92E065EB71E00E94A6
:10062000660A8CE090E00E94BF01BC0185EB92E07D
:100630004AE050E00E94330A85EB92E065EB71E0FE
:100640000E94660A8DE090E00E94BF01BC0185EB2C
:1006500092E04AE050E00E94330A85EB92E067EBBB
:1006600071E00E94660ACCCF80E090E0089581E0BE
:100670008093310260930E0210922F02109230028A
:10068000089520910D0230E080910C02281B310961
:10069000C901089540910C0280910D02481718F08D
:1006A0002FEF3FEF0AC0E42FF0E0E451FE4F8081CE
:1006B000282F30E04F5F40930C02C9010895E0916C
:1006C0000C0280910D02E81718F0EFEFFFEF06C063
:1006D000F0E0E451FE4F8081E82FF0E0CF01089573
:1006E0000895109235021092340288EE93E0A0E053
:1006F000B0E08093360290933702A0933802B09313
:1007000039028CEC91E09093330280933202089589
:10071000CF92DF92EF92FF920F931F93CF93DF93CD
:100720007C016B018A01809131028823A1F0C0E035
:10073000D0E00DC0D701ED91FC91D601AC0FBD1FEB
:100740000190F081E02DC7016C9109952196C017A9
:10075000D10780F304C0CB01642F0E94BA04C80102
:10076000DF91CF911F910F91FF90EF90DF90CF908D
:100770000895DF93CF930F92CDB7DEB7FC01698365
:10078000809131028823C9F080913002803238F0A4
:1007900081E090E09383828320E030E015C0809177
:1007A0002F02E82FF0E0E15FFD4F998190838F5F8A
:1007B00080932F028093300205C0CE01019661E044
:1007C0000E94BA0421E030E0C9010F90CF91DF917F
:1007D00008950F93062F80910E026FE072E0409112
:1007E000300221E00E94650410922F021092300224
:1007F000109231020F91089561E00E94E90308957B
:10080000413208F040E2862F6CEE71E00E941C0439
:1008100010920C0280930D02089521E00E940004C2
:10082000089510920C0210920D0210922F02109255
:1008300030020E9466060895382F413210F040E0E1
:1008400042C080913E028823E1F791E090933E02FE
:10085000209340028FEF8093AB02109266024150CA
:10086000409367024F5F90933F0280913F02330FA6
:10087000832B80933F0280914102813041F410929A
:10088000410280913F028093BB0085EC01C085EE60
:100890008093BC0080913E028130E1F3809166023A
:1008A000841710F44091660220E030E00AC0FB019A
:1008B000E20FF31FD901AA5BBD4F8C9180832F5F9C
:1008C0003F4F2417A0F3842F08950F931F93582FA1
:1008D000122F413210F081E04AC080913E028823FD
:1008E000E1F782E080933E02009340028FEF809315
:1008F000AB021092660240936702A6E4B2E0FB01ED
:1009000002C081918D938E2F861B8417D0F3109295
:100910003F0280913F02550F852B80933F028091CB
:100920004102813041F41092410280913F02809354
:10093000BB0085EC01C085EE8093BC00112321F043
:1009400080913E028230E1F38091AB028F3F11F43F
:1009500080E00DC08091AB02803211F482E007C0CC
:100960008091AB02803311F084E001C083E01F91DD
:100970000F910895482F613210F081E00895809121
:100980003E02843011F082E0089560938902A8E667
:10099000B2E0842F9C01F90102C081918D938E2FCA
:1009A000841B8617D0F380E008951F920F920FB634
:1009B0000F9211242F933F934F935F936F937F93E5
:1009C0008F939F93AF93BF93EF93FF938091B90061
:1009D00090E0887F90708036910509F4F2C08136EE
:1009E0009105CCF58832910509F47BC089329105D7
:1009F000B4F48031910509F46FC0813191053CF464
:100A0000009709F447C1089709F04FC165C08831C4
:100A1000910509F466C0809709F047C182C080340F
:100A2000910509F4A4C08134910544F48033910503
:100A300009F482C0C89709F038C189C08035910592
:100A400009F489C08835910509F496C08834910568
:100A500009F02BC1AEC08839910509F413C1893959
:100A60009105ECF48837910509F4ABC089379105FD
:100A70004CF48836910509F4A4C08037910509F03B
:100A800014C19FC08838910509F4FCC080399105D4
:100A900009F49DC08038910509F007C198C0803BDA
:100AA000910509F4C6C0813B91054CF4803A91054B
:100AB00009F49FC0883A910509F0F7C0BAC0803C9C
:100AC000910509F4E3C0883C910509F4DFC0883B37
:100AD000910509F0EAC0C2C080913F028093BB003B
:100AE000CFC09091660280916702981768F4909148
:100AF0006602E92FF0E0EA5BFD4F80818093BB0046
:100B00009F5F90936602BCC080914002882309F4E5
:100B10004BC085ED8093BC008091BC0084FDFCCF70
:100B2000C2C080E28093AB0285ED8093BC008091CF
:100B3000BC0084FDFCCFB7C080E38093AB0285EDA1
:100B40008093BC008091BC0084FDFCCFACC088E3E6
:100B50008093AB029BC0809166029091BB00E82F0E
:100B6000F0E0EA5BFD4F90838F5F80936602909187
:100B700066028091670282C0809166029091BB00FC
:100B8000E82FF0E0EA5BFD4F90838F5F8093660271
:100B900080914002882341F085ED8093BC008091D4
:100BA000BC0084FDFCCF7FC081E08093410284EAD9
:100BB0006EC085ED8093BC008091BC0084FDFCCFAD
:100BC00072C083E080933E021092AA0259C08091C5
:100BD000AA02803208F056C08091AA029091BB0010
:100BE000E82FF0E0E657FD4F90838F5F8093AA02D5
:100BF00047C08091AA02803230F4E091AA02F0E06E
:100C0000E657FD4F108285ED8093BC008091BC00BB
:100C100084FDFCCF10923E026091AA02E091440252
:100C2000F09145028AE892E070E009951092AA02DC
:100C30002DC084E080933E021092880210928902B7
:100C4000E0914202F0914302099580918902882344
:100C500029F481E0809389021092680290918802C1
:100C6000E92FF0E0E859FD4F80818093BB009F5F42
:100C7000909388029091880280918902981710F4CD
:100C800085EC01C085E88093BC000FC085EC8093A3
:100C9000BC0009C01092AB0285ED8093BC0080912E
:100CA000BC0084FDFCCF10923E02FF91EF91BF91FA
:100CB000AF919F918F917F916F915F914F913F91F4
:100CC0002F910F900FBE0F901F90189510923E021B
:100CD00081E0809340021092410284E161E00E9431
:100CE000400785E161E00E944007E9EBF0E0808188
:100CF0008E7F808380818D7F808380E28093B800A7
:100D000085E48093BC0008951F920F920FB60F9256
:100D100011242F933F934F935F936F937F938F9300
:100D20009F93AF93BF932091B0023091B102409155
:100D3000B2025091B3027091B402DA01C901029675
:100D4000A11DB11D672F6A5F6D3730F06D57DA0155
:100D5000C9010396A11DB11D6093B4028093B00236
:100D60009093B102A093B202B093B3028091AC020F
:100D70009091AD02A091AE02B091AF020196A11D7B
:100D8000B11D8093AC029093AD02A093AE02B093DC
:100D9000AF02BF91AF919F918F917F916F915F91C2
:100DA0004F913F912F910F900FBE0F901F9018956C
:100DB000789484B5826084BD84B5816084BD85B536
:100DC000826085BD85B5816085BDEEE6F0E08081FD
:100DD00081608083E1E8F0E010828081826080831E
:100DE000808181608083E0E8F0E0808181608083A1
:100DF000E1EBF0E0808184608083E0EBF0E08081D3
:100E000081608083EAE7F0E0808184608083808174
:100E10008260808380818E7F8083808180688083F0
:100E20001092C1000895833071F0843028F481302D
:100E3000A1F0823021F514C08730B1F08830D1F0B4
:100E40008430E9F404C0809180008F7703C08091E2
:100E500080008F7D80938000089584B58F7702C0D5
:100E600084B58F7D84BD08958091B0008F77809385
:100E7000B00008958091B0008F7D8093B0000895F8
:100E8000FF920F931F93F62E482F50E0CA0186520F
:100E90009F4FFC012491CA0186549F4FFC0114917D
:100EA00046565F4FFA0104910023C9F0222319F03E
:100EB000822F0E941307E02FF0E0EE0FFF1FEA578A
:100EC000FF4FA591B4919FB7F894FF2021F48C9126
:100ED0001095812302C08C91812B8C939FBF1F9111
:100EE0000F91FF900895DC015E968C915E97FD0155
:100EF000E80FF11DE15EFD4F20815E968C915E97BB
:100F000090E001968F7390705E968C935E975696E4
:100F1000ED91FC91579720835096ED91FC9151975C
:100F20008081806480835D969C915D975E968C91B4
:100F30005E97981739F45296ED91FC915397808102
:100F40008F7D80830895DF92EF92FF920F931F931E
:100F5000CF93DF93EC017A018B01D22E60E874E825
:100F60008EE190E0A80197010E94690A215030406B
:100F7000404050405695479537952795E889F9891F
:100F800082E0808380E12030380798F0E889F98991
:100F9000108260E472E48FE090E0A80197010E9463
:100FA000690A21503040404050405695479537954A
:100FB0002795EC85FD853083EE85FF852083188E8F
:100FC000EC89FD89D082EA89FB89808180618083F8
:100FD000EA89FB89808188608083EA89FB89808136
:100FE00080688083EA89FB8980818F7D8083DF919F
:100FF000CF911F910F91FF90EF90DF900895FC012A
:10100000218D328D838D948D281B390B3170C90150
:101010000895DC0159962D913C915A975B968D91DC
:101020009C915C972817390719F42FEF3FEF09C0FF
:101030005B96ED91FC915C97EA0FFB1F878D282F43
:1010400030E0C9010895DC0159962D913C915A97E1
:101050005B968D919C915C972817390719F42FEFB7
:101060003FEF12C05B96ED91FC915C97EA0FFB1F7E
:10107000278D5B968D919C915C97019691705C9603
:101080009C938E935B9730E0C9010895FC01958D88
:10109000868D282F30E0492F50E0981718F0215CFA
:1010A0003F4F02C021503040241B350BC901089529
:1010B000CF93DF93EC01888D882361F419C08C9164
:1010C00085FF0AC0E889F989808185FF05C0CE01C6
:1010D0000E947307AA89BB898C9185FD05C0E889A8
:1010E000F989808186FD04C00FB607FEE8CFF4CFF2
:1010F000DF91CF9108950F931F93CF93DF93EC016E
:10110000062F81E0888F9D8D8E8D981779F5E8895F
:10111000F989808185FF2AC0EE89FF896083E8898B
:10112000F989808180641AC00FB607FC08C0E8897D
:10113000F989808185FF03C0CE010E9473078E8DDF
:10114000181791F38D8DFE01E80FF11DE15EFD4F43
:1011500000831D8FEA89FB8980818062808381E022
:1011600090E0DF91CF911F910F9108951D8D1F5F2A
:101170001F73E5CF1F920F920FB60F9211242F937A
:101180003F934F938F939F93EF93FF93E091C5020B
:10119000F091C602808182FD1FC0E091CB02F091E8
:1011A000CC0240812091CE023091CF022F5F3F4F81
:1011B00031708091D0029091D1022817390789F0BF
:1011C000E091CE02F091CF02EB54FD4F478F309368
:1011D000CF022093CE0205C0E091CB02F091CC0269
:1011E000E081FF91EF919F918F914F913F912F91CE
:1011F0000F900FBE0F901F9018951092B80210928A
:10120000B70288EE93E0A0E0B0E08093B90290933B
:10121000BA02A093BB02B093BC028EED91E0909312
:10122000B6028093B50285EC90E09093C202809361
:10123000C10284EC90E09093C4028093C30280ECDE
:1012400090E09093C6028093C50281EC90E0909369
:10125000C8028093C70282EC90E09093CA02809308
:10126000C90286EC90E09093CC028093CB0210925E
:10127000CF021092CE021092D1021092D0021092A0
:10128000D2021092D30208951F920F920FB60F92BE
:1012900011242F933F934F935F936F937F938F937B
:1012A0009F93AF93BF93EF93FF9385EB92E00E94E0
:1012B0007307FF91EF91BF91AF919F918F917F91B4
:1012C0006F915F914F913F912F910F900FBE0F90B3
:1012D0001F901895CF92DF92EF92FF920F931F937A
:1012E000CF93DF937C018B016A01C0E0D0E00FC097
:1012F000D701ED91FC910190F081E02DC701D8015B
:101300006C910995892B31F00F5F1F4F2196CC16F8
:10131000DD0671F7CE01DF91CF911F910F91FF9004
:10132000EF90DF90CF900895CF93DF93EC0161159C
:10133000710519F420E030E00FC0DB010D900020B2
:10134000E9F71197A61BB70BE881F9810280F381B9
:10135000E02DAD0109959C01C901DF91CF91089560
:101360003F924F925F926F927F928F929F92AF9235
:10137000BF92CF92DF92EF92FF920F931F93DF9372
:10138000CF93CDB7DEB7A3970FB6F894DEBF0FBEED
:10139000CDBF9BA38AA3342E452E562E672E223016
:1013A00008F42AE019A281E2C82ED12CCC0EDD1E51
:1013B000822E9924AA24BB24632D742D852D962D6D
:1013C000A50194010E94690A762E632D742D852D46
:1013D000962DA50194010E94690A79018A01D8011C
:1013E000C701382E492E5A2E6B2E0894C108D108F9
:1013F00089E087151CF0672D605D02C0672D695C70
:10140000F6016083E114F10401051105A9F68AA132
:101410009BA1B6010E949409A3960FB6F894DEBF73
:101420000FBECDBFCF91DF911F910F91FF90EF9035
:10143000DF90CF90BF90AF909F908F907F906F90F4
:101440005F904F903F900895DC012115310541F4E4
:10145000ED91FC910190F081E02D642F09950895A4
:101460000E94B0090895EF92FF920F931F939A0183
:101470007B0100E010E0B801A7010E94240A1F913F
:101480000F91FF90EF90089569EB71E00E9494092D
:101490000895CF92DF92EF92FF920F931F936C010A
:1014A0007B019A0100E010E0B801A7010E94240A24
:1014B0008C01C6010E94440A080F191FC8011F9120
:1014C0000F91FF90EF90DF90CF9008950E949409C4
:1014D0000895A1E21A2EAA1BBB1BFD010DC0AA1F75
:1014E000BB1FEE1FFF1FA217B307E407F50720F08D
:1014F000A21BB30BE40BF50B661F771F881F991F08
:101500001A9469F760957095809590959B01AC0150
:10151000BD01CF010895EE0FFF1F0590F491E02D5E
:061520000994F894FFCFCE
:101526005057525F434F4E54524F4C09000A535482
:101536004147455F43414C5F454E09000A5374617C
:101546006765305F436F6E6E656374696F6E5B3699
:101556003A305D09000A5374616765305F436F6E08
:101566006E656374696F6E5B31323A375D09000AE6
:101576005374616765315F436F6E6E656374696F3F
:101586006E5B363A305D09000A5374616765315FF8
:10159600436F6E6E656374696F6E5B31323A375DA9
:1015A60009000A5374616765325F436F6E6E656347
:1015B60074696F6E5B363A305D09000A5374616771
:1015C60065325F436F6E6E656374696F6E5B313251
:1015D6003A375D090009000A000D0A006E616E00C7
:1015E600696E66006F76660000000000B903880326
:1015F6003403700341034A035F03000000007B08C5
:0C1606006A0946085808FF072308090875
:00000001FF
